S01100007A65676172206133322E7372656314
S11300000C942A000C9447000C9447000C9447006D
S11300100C9447000C9447000C9447000C94470040
S11300200C9447000C9447000C9447000C94470030
S11300300C9447000C9447000C9447000C94470020
S11300400C9447000C9447000C9447000C94470010
S11300500C94470011241FBECFE5D8E0DEBFCDBF0E
S113006010E0A0E6B0E0EAE4FBE002C005900D92E7
S1130070A439B107D9F720E0A4E9B0E001C01D928A
S1130080A639B207E1F70E9464010C94A3050C940D
S113009000008B988A98D498D398D99ADA9A89B31D
S11300A083FB882780F9CC99826082998460839944
S11300B088608295807FDA98DA9A99B393FB9927BE
S11300C090F9CC9992608299946083999860DA98B7
S11300D0892B0895D8980E94490008958B9A8A9A8A
S11300E0D49AD39AD998DA9A982F92959F7090FFC0
S11300F002C0DB9A01C0DB9891FF02C0DC9A01C008
S1130100DC9892FF02C0929A01C09298987011F004
S1130110939A01C09398DA98DA9A80FF02C0DB9A26
S113012001C0DB9881FF02C0DC9A01C0DC9882FF29
S113013002C0929A01C0929883FF02C0939A01C0B0
S11301409398DA980E946A008823E4F30895D89873
S11301500E946E000895D89A0E946E0008958093BC
S1130160950060939400843098F466238CF0603199
S11301707CF4823031F0833031F0813029F488E22C
S113018003C080E101C080E56058860F0E94A7008B
S11301900895CF93C82F80919500843080F46091A6
S11301A09400662364F0603154F40E94AF008C2FF5
S11301B08058883008F4C7708C2F0E94AB0080915F
S11301C094008F5F80939400CF910895CF93DF9331
S11301D0EC018991882329F00E94C9008991811139
S11301E0FBCFDF91CF910895CF93DF93CDB7DEB7E7
S11301F061970FB6F894DEBF0FBECDBF4AE050E062
S1130200BE016F5F7F4F0E945E050E94E60061960B
S11302100FB6F894DEBF0FBECDBFDF91CF91089526
S1130220109295001092940081E00E94A700089516
S11302308B9A8A9AD49AD39AD09AD29AD19AD89AE3
S1130240DA9AD99A85EA9EE00197F1F700C0000096
S1130250DA98D898D998DA9ADB9ADC9A9298939893
S1130260DA9880E094E00197F1F700C00000DA9A90
S1130270DB9ADC9A92989398DA9891E29A95F1F73E
S11302800000DA9ADB9ADC9A92989398DA9881E2E1
S11302908A95F1F70000DA9ADB98DC9A92989398A1
S11302A0DA9891E29A95F1F7000088E20E94A7009B
S11302B088E00E94A7008CE00E94A70086E00E94CC
S11302C0A7000E9410010895CF93DF93CDB7DEB746
S11302D02A970FB6F894DEBF0FBECDBFBB9A8FE04E
S11302E084BB3E9A86B1836886B983B7886483BF2A
S11302F083B7806283BF83B7836083BF1CBE0E94C1
S113030018010E94100160E080E00E94AF0087B1F4
S1130310876087B9369A3699FECF84B195B149E1A1
S1130320489F9001499F300D1124A1E8B0E80E9434
S11303305205880F892F881F990B9195BC0180E085
S113034090E00E9439046C837D838E839F8397B1F0
S113035081E0892787B9369A3699FECF84B195B161
S113036049E1489F9001499F300D1124A1E8B0E86C
S11303700E945205880F892F881F990B9195BC0103
S113038080E090E00E943904D62EC72EB82EA92E04
S113039097B183E0892787B9369A3699FECF84B11D
S11303A095B149E1489F9001499F300D1124A1E87E
S11303B0B0E80E945205880F892F881F990B9195E8
S11303C0BC0180E090E00E943904E62E372E482ECE
S11303D0592E8D2C7C2C6B2C60E083E00E94AF00A6
S11303E0682D772D862D9A2D0E940804CB010E943A
S11303F0F40080E690E00E94E6006E2D732D842DBB
S1130400952D0E940804CB010E94F40084E690E03C
S11304100E94E6005C814D813E812F81652F742FFF
S1130420832F922F0E940804CB010E94F40085E6DA
S113043090E00E94E60087B1876087B9369A3699C2
S1130440FECF64B175B180E090E00E943904262E9D
S113045079838A839B8387B191E0892787B9369A08
S11304603699FECF64B175B180E090E00E94390402
S1130470962EB72EC82ED92E97B183E0892787B937
S1130480369A3699FECF64B175B180E090E00E944F
S1130490390420E030E048EC51E40E94EF0420E00D
S11304A030E04FE753E40E94A003F62E072F182FE5
S11304B09A8760E080E00E94AF002A856F2D702F3C
S11304C0812F922F0E940804CB010E94F40089E638
S11304D090E00E94E60060E081E00E94AF0020E02E
S11304E030E048EC51E4A981EA81FB81622D7A2F46
S11304F08E2F9F2F0E94EF0420E030E04FE753E45B
S11305000E94A0030E940804CB010E94F40087E724
S113051090E00E94E60020E030E048EC51E4692DD0
S11305207B2D8C2D9D2D0E94EF0420E030E04FE7C1
S113053053E40E94A003962EB72EC82ED92E60E055
S113054082E00E94AF00692D7B2D8C2D9D2D0E9491
S11305500804CB010E94F40085E890E00E94E600C4
S1130560282D372D462D5A2D692D7B2D8C2D9D2D13
S11305700E94370320E030E040E451E40E94EF049D
S113058020E030E040E351E40E94A003962EB72E11
S1130590C82ED92E2E2D332D442D552DEA856F2DA1
S11305A0702F812F9E2F0E943703F62E072F182FAE
S11305B0292E762F272F302F412F522D692D7B2D59
S11305C08C2D9D2D0E94EB0418162CF4A89AEDEFA7
S11305D0E5BBFFEFFCBF20E030E040E85FE36F2DB8
S11305E0702F812F922D0E9438039B01AC01692D3D
S11305F07B2D8C2D9D2D0E949C0388232CF4A99A7D
S11306008EEF85BB9FEF9CBF20E030E040E85FE3C6
S1130610692D7B2D8C2D9D2D0E9438039B01AC01EF
S11306206F2D702F812F922D0E949C03880F880BB1
S1130630817009F4D1CE20E030E040E85FE3692D19
S11306407B2D8C2D9D2D0E9437039B01AC01DD2455
S1130650D3946F2D702F812F922D0E94EB041816C6
S11306600CF0D12CDD2009F4B7CE1CBEB5CE505809
S1130670BB27AA270ED075C166D130F06BD120F00C
S113068031F49F3F11F41EF45BC10EF4E095E7FBD7
S113069051C1E92F77D180F3BA1762077307840732
S11306A0950718F071F49EF58FC10EF4E0950B2EAA
S11306B0BA2FA02D0B01B90190010C01CA01A001B0
S11306C01124FF27591B99F0593F50F4503E68F10B
S11306D01A16F040A22F232F342F4427585FF3CF4C
S11306E0469537952795A795F0405395C9F77EF41D
S11306F01F16BA0B620B730B840BBAF09150A1F066
S1130700FF0FBB1F661F771F881FC2F70EC0BA0FEB
S1130710621F731F841F48F4879577956795B79573
S1130720F7959E3F08F0B3CF9395880F08F099276B
S1130730EE0F979587950895D9D008F481E0089530
S11307400CD00FC107D140F0FED030F021F45F3F50
S113075019F0F0C0511139C1F3C014D198F39923A1
S1130760C9F35523B1F3951B550BBB27AA27621771
S11307707307840738F09F5F5F4F220F331F441FB6
S1130780AA1FA9F333D00E2E3AF0E0E830D09150EE
S11307905040E695001CCAF729D0FE2F27D0660FDB
S11307A0771F881FBB1F261737074807AB07B0E81A
S11307B009F0BB0B802DBF01FF2793585F4F2AF030
S11307C09E3F510568F0B6C000C15F3FECF3983E10
S11307D0DCF3869577956795B795F7959F5FC9F78D
S11307E0880F911D9695879597F90895E1E0660F16
S11307F0771F881FBB1F621773078407BA0720F08F
S1130800621B730B840BBA0BEE1F88F7E0950895F7
S113081004D06894B111D9C00895BCD088F09F5712
S113082090F0B92F9927B751A0F0D1F0660F771F38
S1130830881F991F1AF0BA95C9F712C0B13081F018
S1130840C3D0B1E00895C0C0672F782F8827B85F60
S113085039F0B93FCCF3869577956795B395D9F779
S11308603EF490958095709561957F4F8F4F9F4F83
S11308700895E89409C097FB3EF49095809570958F
S113088061957F4F8F4F9F4F9923A9F0F92F96E9D8
S1130890BB279395F695879577956795B795F1114D
S11308A0F8CFFAF4BB0F11F460FF1BC06F5F7F4FEA
S11308B08F4F9F4F16C0882311F096E911C07723FC
S11308C021F09EE8872F762F05C0662371F096E805
S11308D0862F70E060E02AF09A95660F771F881FD4
S11308E0DAF7880F9695879597F90895990F000878
S11308F0550FAA0BE0E8FEEF16161706E807F907EE
S1130900C0F012161306E407F50798F0621B730B88
S1130910840B950B39F40A2661F0232B242B252B09
S113092021F408950A2609F4A140A6958FEF811DAC
S1130930811D089597F99F6780E870E060E008954D
S11309409FEF80EC089500240A94161617061806E3
S11309500906089500240A941216130614060506BF
S11309600895092E0394000C11F4882352F0BB0F50
S113097040F4BF2B11F460FF04C06F5F7F4F8F4FB3
S11309809F4F089557FD9058440F551F59F05F3FEE
S113099071F04795880F97FB991F61F09F3F79F09D
S11309A087950895121613061406551FF2CF46951F
S11309B0F1DF08C0161617061806991FF1CF8695A1
S11309C07105610508940895E894BB276627772785
S11309D0CB0197F908958ADF08F48FEF08950BD0BF
S11309E0C0CFB1DF28F0B6DF18F0952309F0A2CF0D
S11309F0A7CF1124EACFC6DFA0F3959FD1F3950FBB
S1130A0050E0551F629FF001729FBB27F00DB11D8E
S1130A10639FAA27F00DB11DAA1F649F6627B00D1E
S1130A20A11D661F829F2227B00DA11D621F739F07
S1130A30B00DA11D621F839FA00D611D221F749F15
S1130A403327A00D611D231F849F600D211D822F5C
S1130A50762F6A2F11249F5750408AF0E1F08823A3
S1130A604AF0EE0FFF1FBB1F661F771F881F9150B0
S1130A705040A9F79E3F510570F05CCFA6CF5F3F71
S1130A80ECF3983EDCF3869577956795B795F795E3
S1130A90E7959F5FC1F7FE2B880F911D969587956B
S1130AA097F90895A29FB001B39FC001A39F01D0FD
S1130AB0B29F700D811D1124911D0895FB019F01AA
S1130AC0E8944230C4F04532B4F44A3029F497FB38
S1130AD01EF4909581959F4F642F77270E948F0570
S1130AE0805D8A330CF0895D8193CB010097A1F777
S1130AF016F45DE251931082C9010C947F05DC0168
S1130B00FC01672F71917723E1F7329704C07C9140
S1130B106D9370836291AE17BF07C8F30895AA1B43
S1130B20BB1B51E107C0AA1FBB1FA617B70710F0D4
S1130B30A61BB70B881F991F5A95A9F78095909506
S10D0B40BC01CD010895F894FFCF25
S1130B4A6C7020006C70742000206C65776F2F70B5
S1130B5A7261776F2074002070727A6F642F7479CF
S1130B6A6C20202000206C65776F202F2070726122
S1070B7A776F20006D
S9030000FC
